:020000002100DD
:1001000075B000759000781179007A087B057C073E
:100110007D009010007E047FBF3144DFFCDEF80CD0
:10012000BC0AF27C000BBB06EC7B000AB90108BAE2
:1001300003E37A0179000DBA0ADB7A0009B902D526
:10014000790080CE758901758C00758A00D28C315A
:100150007A3167319B316731A9316731B731673007
:100160008DEDC28CC28D22758910758DC3758B5033
:10017000D28E308FFDC28EC28F22E475F000ED75F5
:10018000F00284E5F0B40005902000800390100098
:10019000E8F590EC93F5B0E823F822901000E8F52C
:1001A00090EB93F5B0E823F822901000E8F590EA80
:1001B00093F5B0E823F822901000E8F590E993F564
:0501C000B0E823F82265
:0A100000C0F9A4B0999282F880981C
:0A200000407924301912027800180C
:00000001FF
